:0400000007EF00F016
:0A000800458201ED03F03CEF03F028
:1006000000000600D9CF43F0DACF44F09EAA0BEFEA
:1006100003F00DEF03F014EF03F05BEC03F0016E59
:10062000010E426E1BEC03F09E9A44C0DAFF43C0F9
:10063000D9FF4592110024EF03F04250D96EDA6AD7
:10064000DF5047EC03F0422A4250D96EDA6ADF509D
:10065000D8A42DEF03F02FEF03F01DEF03F01200ED
:1006600069EC03F06EEC03F064EC03F052EC03F081
:1006700038EF03F007EF00F000EE01F0400EEE6AF5
:10068000E806FDE145904592000130EF03F0416E30
:10069000ACA24DEF03F04FEF03F048EF03F041C081
:1006A000ADFF1200AC8AAB88AC98AB8EAC94B89618
:1006B0000C0EAF6E12009EAA60EF03F062EF03F023
:1006C0005BEF03F0AE501200C00EF26E200E9D6E76
:1006D0001200000ED36E000E9B6E12000F0EC16E44
:0206E000120006
:020000040020DA
:08000000FFFFFFFFFFFFFFFF00
:020000040030CA
:0E000000FF02191EFF8181FF0FC00FE00F40AD
:00000001FF
